:020000040800F2
:1000000000500020791B0008A51A0008A71A000854
:10001000A91A0008AB1A0008AD1A00080000000079
:10002000000000000000000000000000AF1A0008FF
:10003000B11A000800000000B31A0008B51A000841
:10004000C11B0008C11B0008C11B0008C11B000820
:10005000C11B0008C11B0008C11B0008C11B000810
:10006000C11B0008C11B0008C11B0008C11B000800
:10007000C11B0008C11B0008C11B0008C11B0008F0
:10008000C11B0008C11B0008C11B0008C11B0008E0
:10009000C11B0008B91A0008C11B0008C11B0008D9
:1000A000C11B0008C11B0008C11B0008C11B0008C0
:1000B000C11B0008C11B0008C11B0008C11B0008B0
:1000C000C11B0008C11B0008C11B0008C11B0008A0
:1000D000C11B0008C11B0008C11B0008C11B000890
:1000E000C11B0008C11B0008C11B00080000000064
:1000F0000000000000000000000000000000000000
:0C01000000000000000000005FF808F1A3
:1001100010B5054C237833B9044B13B10448AFF341
:1001200000800123237010BD6C000020000000003F
:100130003846000808B5034B1BB103490348AFF329
:10014000008008BD00000000700000203846000854
:100150004FF0FF0C1CEAD0521EBF1CEAD15392EAAA
:100160000C0F93EA0C0F6FD01A4480EA010C400286
:1001700018BF5FEA41211ED04FF0006343EA5010E0
:1001800043EA5111A0FB01310CF00040B1F5000F22
:100190003EBF490041EAD3715B0040EA010062F1D1
:1001A0007F02FD2A1DD8B3F1004F40EBC25008BFBB
:1001B00020F00100704790F0000F0CF0004C08BFD9
:1001C00049024CEA502040EA51207F3AC2BFD2F1A6
:1001D000FF0340EAC250704740F400004FF00003B4
:1001E000013A5DDC12F1190FDCBF00F000407047EE
:1001F000C2F10002410021FA02F1C2F1200200FA2C
:1002000002FC5FEA310040F1000053EA4C0308BFF2
:1002100020EADC70704792F0000F00F0004C02BF43
:10022000400010F4000F013AF9D040EA0C0093F0BE
:10023000000F01F0004C02BF490011F4000F013B18
:10024000F9D041EA0C018FE70CEAD15392EA0C0F86
:1002500018BF93EA0C0F0AD030F0004C18BF31F0F1
:10026000004CD8D180EA010000F00040704790F0C7
:10027000000F17BF90F0004F084691F0000F91F06B
:10028000004F14D092EA0C0F01D142020FD193EA31
:100290000C0F03D14B0218BF084608D180EA0100B9
:1002A00000F0004040F0FE4040F40000704740F095
:1002B000FE4040F44000704781F0004102E000BF82
:1002C00083F0004330B54FEA41044FEA430594EA16
:1002D000050F08BF90EA020F1FBF54EA000C55EA51
:1002E000020C7FEA645C7FEA655C00F0E2804FEA22
:1002F0005454D4EB5555B8BF6D420CDD2C4480EA04
:10030000020281EA030382EA000083EA010180EA33
:10031000020281EA0303362D88BF30BD11F0004F81
:100320004FEA01314FF4801C4CEA113102D04042B7
:1003300061EB410113F0004F4FEA03334CEA1333F2
:1003400002D0524263EB430394EA050F00F0A7800A
:10035000A4F10104D5F1200E0DDB02FA0EFC22FA05
:1003600005F2801841F1000103FA0EF2801843FAF9
:1003700005F359410EE0A5F120050EF1200E012AEA
:1003800003FA0EFC28BF4CF0020C43FA05F3C01828
:1003900051EBE37101F0004507D54FF0000EDCF1A1
:1003A000000C7EEB00006EEB0101B1F5801F1BD34A
:1003B000B1F5001F0CD349085FEA30004FEA3C0C4E
:1003C00004F101044FEA445212F5800F80F09A8044
:1003D000BCF1004F08BF5FEA500C50F1000041EB48
:1003E000045141EA050130BD5FEA4C0C404141EB4C
:1003F0000101013C28BFB1F5801FE9D291F0000F47
:1004000004BF01460020B1FA81F308BF2033A3F1F5
:100410000B03B3F120020CDA0C3208DD02F1140CEC
:10042000C2F10C0201FA0CF021FA02F10CE002F127
:100430001402D8BFC2F1200C01FA02F120FA0CFC20
:10044000DCBF41EA0C019040E41AA2BF01EB045169
:10045000294330BD6FEA04041F3C1CDA0C340EDC67
:1004600004F11404C4F1200220FA04F001FA02F3AA
:1004700040EA030021FA04F345EA030130BDC4F168
:100480000C04C4F1200220FA02F001FA04F340EA5D
:100490000300294630BD21FA04F0294630BD94F00E
:1004A000000F83F4801306BF81F480110134013DF5
:1004B0004EE77FEA645C18BF7FEA655C29D094EA66
:1004C000050F08BF90EA020F05D054EA000C04BFE4
:1004D0001946104630BD91EA030F1EBF00210020CF
:1004E00030BD5FEA545C05D14000494128BF41F06E
:1004F000004130BD14F580043CBF01F5801130BDD2
:1005000001F0004545F0FE4141F470014FF000005C
:1005100030BD7FEA645C1ABF194610467FEA655C0D
:100520001CBF0B46024650EA013406BF52EA0335AF
:1005300091EA030F41F4002130BD00BF90F0000F9D
:1005400004BF0021704730B54FF4806404F13204D9
:100550004FF000054FF0000150E700BF90F0000F92
:1005600004BF0021704730B54FF4806404F13204B9
:1005700010F0004548BF40424FF000013EE700BF89
:1005800042004FEAE2014FEA31014FEA02701FBF19
:1005900012F07F4393F07F4F81F06051704732F04B
:1005A0007F4208BF704793F07F4F04BF41F40021A2
:1005B000704730B54FF4607401F0004521F0004100
:1005C0001CE700BF50EA010208BF704730B54FF08A
:1005D00000050AE050EA010208BF704730B511F08B
:1005E000004502D5404261EB41014FF4806404F1C3
:1005F00032045FEA915C3FF4D8AE4FF003025FEA49
:10060000DC0C18BF03325FEADC0C18BF033202EBCC
:10061000DC02C2F1200300FA03FC20FA02F001FA26
:1006200003FE40EA0E0021FA02F11444BDE600BFC9
:100630004FF0FF3C06E000BF4FF0010C02E000BFAE
:100640004FF0010C4DF804CD4FEA410C7FEA6C5C91
:100650004FEA430C18BF7FEA6C5C1BD001B050EA34
:10066000410C0CBF52EA430C91EA030F02BF90EA1F
:10067000020F0020704710F1000F91EA030F58BFDE
:10068000994208BF90422CBFD8176FEAE37040F040
:10069000010070474FEA410C7FEA6C5C02D150EADE
:1006A000013C07D14FEA430C7FEA6C5CD6D152EA99
:1006B000033CD3D05DF8040B704700BF844610465E
:1006C00062468C461946634600E000BF01B5FFF75D
:1006D000B7FF002848BF10F1000F01BD4DF808ED2D
:1006E000FFF7F4FF0CBF012000205DF808FB00BFFE
:1006F0004DF808EDFFF7EAFF34BF012000205DF858
:1007000008FB00BF4DF808EDFFF7E0FF94BF0120A4
:1007100000205DF808FB00BF4DF808EDFFF7CEFFA5
:1007200094BF012000205DF808FB00BF4DF808EDE4
:10073000FFF7C4FF34BF012000205DF808FB00BFB5
:100740004FF0FF3C06E000BF4FF0010C02E000BF9D
:100750004FF0010C4DF804CD4FEA40024FEA41033F
:100760007FEA226C18BF7FEA236C11D001B052EAF5
:10077000530C18BF90EA010F58BFB2EB030088BFBB
:10078000C81738BF6FEAE17018BF40F0010070472A
:100790007FEA226C02D15FEA402C05D17FEA236C0C
:1007A000E4D15FEA412CE1D05DF8040B704700BF53
:1007B000844608466146FFE70FB5FFF7C9FF0028EA
:1007C00048BF10F1000F0FBD4DF808EDFFF7F4FF23
:1007D0000CBF012000205DF808FB00BF4DF808EDBC
:1007E000FFF7EAFF34BF012000205DF808FB00BFDF
:1007F0004DF808EDFFF7E0FF94BF012000205DF801
:1008000008FB00BF4DF808EDFFF7D2FF94BF0120B1
:1008100000205DF808FB00BF4DF808EDFFF7C8FFAA
:1008200034BF012000205DF808FB00BF42000ED25B
:10083000B2F1FE4F0BD34FF09E03B3EB126209D41B
:100840004FEA002343F0004323FA02F070474FF0D1
:100850000000704712F1610F01D1420202D14FF046
:10086000FF3070474FF00000704700BF084B4FF457
:100870007A7259434FF4FA6301F5FA71B1FBF3F35D
:10088000B1FBF2F102FB0030B0FBF1F0704700BFAA
:10089000002F3A0050B10023013830F0FF019AB226
:1008A00003F1010303D140EA022080B270474008FF
:1008B000F3E700001FB5084C012321706421CDE946
:1008C00001310649009402460978054802F05CF9B6
:1008D000044B187004B010BDE90000200000002097
:1008E00088000020E80000201FB5094B024619804F
:1008F00064200221CDE90110064900930978012303
:10090000054802F041F9054B187005B05DF804FB8D
:10091000E90000200000002088000020E8000020FE
:100920001FB5094B0246197864200123074CCDE915
:10093000013019430094064802F0B6F9054B1870CF
:10094000207804B010BD00BF00000020E9000020A6
:1009500088000020E80000201FB5094B02461978E6
:1009600064200223CDE901300123064C1943009491
:10097000054802F099F9054B1870208804B010BDA5
:1009800000000020E900002088000020E80000208E
:100990001FB5094B096819606421CDE90121074998
:1009A0000093024601230978054802F0EDF8054B53
:1009B000187005B05DF804FBE9000020000000207D
:1009C00088000020E80000201FB5084B1C78642335
:1009D000CDE90123012302460091054844EA0301C1
:1009E00002F062F9034B187004B010BD0000002043
:1009F00088000020E800002038B500210546FFF7F8
:100A0000EDFE0446A8B92846FFF7BAFD0CA3D3E9CA
:100A10000023FFF78BFE70B94FF086412846FFF7A1
:100A200097FBFFF703FF81B24420FFF75DFF012032
:100A300038BD0020FCE72046FAE700BFAFF3008096
:100A4000A4703D0AD7FF7F4008B530B95020FFF7AA
:100A500067FF01304000C0B208BD012801D17020FD
:100A6000F5E7FF20F8E700007FB5044601F0ECF859
:100A70001F4D204E28801320FFF752FF430709D057
:100A8000DCB91E20FFF768FF054601210B20FFF7A8
:100A900011FF0FE03388002BEDD001F0D5F82B8843
:100AA00080B2C01A33889842E5DD01224FF6FF7507
:100AB000114B1A70284604B070BD0C22142001A9F5
:100AC000FFF782FF9DF80430DB082372BDF8063083
:100AD0005BBAE380BDF80A305BBA6380BDF80C30C6
:100AE0005BBAA380BDF80E305BBA9DB22380CCE721
:100AF000E6000020DC000020DE00002070B50121AF
:100B000004468020FFF7D6FE0121FF20FFF7D2FE2A
:100B100000210846FFF7CEFE1A4B91201978FFF707
:100B2000C9FE01210020FFF7C5FE0021FF20FFF7CD
:100B3000C1FE00218020FFF7BDFE01210020FFF74C
:100B4000B9FE01F081F8104D104E28800020FFF70B
:100B5000E7FEC30704D42046BDE87040FFF784BF1A
:100B60003388002BF2D001F06FF82A8883B29B1AE9
:100B700032889342EADD0122054B4FF6FF701A706E
:100B800070BD00BFE4000020E6000020DC00002073
:100B9000DE0000202DE9F04106460D4680200121AF
:100BA000FFF788FE0121FF20FFF784FE00210846A1
:100BB000FFF780FE0621FF20FFF77CFE8320FFF772
:100BC000AFFE40F00401C9B28320FFF773FE072196
:100BD000FF20FFF76FFE01218120FFF76BFE01214F
:100BE0008020FFF767FE6B219420FFF763FE002152
:100BF0008320FFF75FFE01F027F8234FDFF88C809A
:100C000038808320FFF78CFE044668B301218320DF
:100C1000FFF750FE9220FFF783FE00F07F03C0092C
:100C20003370002128708120FFF744FE0621FF2049
:100C3000FFF740FE8320FFF773FE00F0FB018320E7
:100C4000FFF738FE0121FF20FFF734FE01210020CD
:100C5000FFF730FE0021FF20FFF72CFE002180204F
:100C6000FFF728FE01240CE0B8F80030002BC8D0B4
:100C700000F0EAFF3A8883B29B1AB8F8002093424A
:100C8000BFDD2046BDE8F081E6000020DC0000204A
:100C900010B504460120FFF743FEC0F30013237094
:100CA000C0F3C003A370C0F380036370C0F380136C
:100CB000E370C309237110BD2DE9F04106465020B1
:100CC0000C46FFF72DFE4FF47A774FF4FA680130A7
:100CD0004000C0B220804620FFF722FE274D237837
:100CE00001306B4303F5FA73B3FBF7F2B3FBF8F390
:100CF00080B200FB0233B3FBF7F3A080E360512026
:100D0000FFF72AFE2378C2B26B4303F5FA73B3FBF5
:100D1000F7F1B3FBF8F3C0F30F208240013292B237
:100D200002FB0133B3FBF7F3E28023610120FFF7FD
:100D30008BFE60807120FFF70FFEC3B2C0F30F205F
:100D4000834001339BB22381F27812B1E2889B1A6F
:100D50002381A3784FF47A726B434FF4FA6503F55D
:100D6000FA73B3FBF2F1B3FBF5F3208900FB013317
:100D7000B3FBF2F36361BDE8F08100BF002F3A00DE
:100D800044F61F6330B59842044689B044D968469A
:100D9000FFF77EFF684602A9FFF78EFF9DF800303F
:100DA00073B3059B03F636339DF802205AB3059AB8
:100DB00002F2B22203EB42039DF803501DB1069AE2
:100DC00002F5257213449DF80420B2B103F22623E4
:100DD0009C4221D39DF80A10E01AFFF747FD80B22C
:100DE0001DB1BDF80E30184480B2FFF753FD014627
:100DF0007120FFF779FD094B1C60012009B030BD5F
:100E000040F6E803D0E79DF80120002AD4D0059AE7
:100E100002F525721344CFE70020EFE7E000002041
:100E200000B589B06846FFF733FF684602A9FFF7AF
:100E300043FF9DF80030EBB1059800F684509DF813
:100E40000230D3B1059B03F2B22300EB43009DF8BF
:100E500003301BB1069B03F5257318449DF804303D
:100E60001BB1079B03F226231844084B186009B0F6
:100E70005DF804FB40F63630E1E79DF80130002BC9
:100E8000E5D0059B03F525731844E0E7E00000205A
:100E900070B540F001010020FFF70CFD00F0D4FE1A
:100EA0000F4D104E28801320FFF73AFD10F0070475
:100EB00009D001210B20FFF7FDFC00210846FFF7B8
:100EC000F9FC01240AE03388002BECD000F0BCFED2
:100ED0002B8880B2C01A33889842E4DD204670BD6A
:100EE000E6000020DC000020F0B55422044685B066
:100EF000274802F07CFE0022264B1A705A709A7026
:100F0000DA7044B18920FFF70BFD40F00101C9B24E
:100F10008920FFF7CFFC00218820FFF7CBFC0121BF
:100F20008020FFF7C7FC0121FF20FFF7C3FC002151
:100F30000846FFF7BFFC9120FFF7F2FC164B01219A
:100F400018700020FFF7B6FC0021FF20FFF7B2FC6D
:100F500000218020FFF7AEFC6020FFF7E1FC40F0AD
:100F60001201C9B26020FFF7A5FC4FF07A50FFF7DD
:100F700043FDFF210120FFF79DFC0DF107010DF15D
:100F80000600FFF707FE48B9002005B0F0BD00BF1E
:100F900088000020E9000020E40000200024062250
:100FA000B02002A9FFF710FD0121FF20FFF782FC0E
:100FB00000214F20FFF77EFC2C214E20FFF77AFC0A
:100FC0000021FF20FFF776FCB421B620FFF772FC6A
:100FD0009DF807102246002918BF0C214FF0010C84
:100FE0009DF80670C4F3C40505F11003E6B20DEBDD
:100FF0000305B14215F8083C04F0070002D89742F7
:1010000040F083810CFA00F023EA000305F8083C65
:101010000134302CE6D10622B02002A9FFF7B8FC3B
:101020000121FF20FFF746FC00210846FFF742FCA4
:101030000021FF20FFF73EFC00210920FFF73AFCCA
:1010400000211020FFF736FC00211120FFF732FCB1
:1010500001212420FFF72EFCFF212520FFF72AFC89
:1010600000217520FFF726FC0121FF20FFF722FC5D
:101070002C214E20FFF71EFC00214820FFF71AFC10
:1010800020462021FFF716FC0021FF20FFF712FC6D
:1010900020460921FFF70EFC00215420FFF70AFC2F
:1010A00004213120FFF706FC03213220FFF702FC68
:1010B00083214020FFF7FEFB25214620FFF7FAFBA6
:1010C00000216020FFF7F6FB00212720FFF7F2FB4D
:1010D00006215020FFF7EEFB00215120FFF7EAFB2D
:1010E00096215220FFF7E6FB08215620FFF7E2FB8E
:1010F00021465720FFF7DEFB00216120FFF7DAFBD6
:1011000000216220FFF7D6FB00216420FFF7D2FB0D
:1011100000216520FFF7CEFBA0216620FFF7CAFB68
:101120000121FF20FFF7C6FB32212220FFF7C2FB7F
:1011300014214720FFF7BEFBFF214920FFF7BAFB30
:1011400000214A20FFF7B6FB0021FF20FFF7B2FB8A
:101150000A217A20FFF7AEFB00217B20FFF7AAFBD4
:1011600021217820FFF7A6FB0121FF20FFF7A2FB3A
:1011700034212320FFF79EFB00214220FFF79AFB3A
:10118000FF214420FFF796FB26214520FFF792FB25
:1011900005214620FFF78EFB40210846FFF78AFB1A
:1011A00006210E20FFF786FB1A212020FFF782FB85
:1011B00040214320FFF77EFB0021FF20FFF77AFB51
:1011C00003213420FFF776FB44213520FFF772FB23
:1011D0000121FF20FFF76EFB04213120FFF76AFB9E
:1011E00009214B20FFF766FB05214C20FFF762FB2E
:1011F00004214D20FFF75EFB0021FF20FFF75AFB83
:1012000000214420FFF756FB20214520FFF752FB29
:1012100008214720FFF74EFB28214820FFF74AFB13
:1012200000216720FFF746FB04217020FFF742FBF7
:1012300001217120FFF73EFBFE217220FFF73AFBF0
:1012400000217620FFF736FB00217720FFF732FBE5
:101250000121FF20FFF72EFB01210D20FFF72AFBC4
:101260000021FF20FFF726FB01218020FFF722FB52
:10127000F8210120FFF71EFB0121FF20FFF71AFBD9
:1012800001218E20FFF716FB01210020FFF712FB42
:101290000021FF20FFF70EFB00218020FFF70AFB53
:1012A00004210A20FFF706FB8420FFF739FB00F03A
:1012B000EF018420FFF7FEFA01210B20FFF7FAFA75
:1012C000FFF7AEFD144CE82120600120FFF7F2FA91
:1012D0002068FFF755FD01210846FFF7EBFA402093
:1012E000FFF7D6FD00283FF44FAE01200221FFF7A3
:1012F000E1FA0020FFF7CCFD00283FF445AE0120C5
:10130000E821FFF7D7FA01203FE60341DB0744BF9E
:101310000132D2B27CE600BFE000002070B5044686
:1013200088B04E0868460D46013EFFF7B1FC68469E
:1013300002A9F6B2FFF7C0FC002C4ED1A5F10C03B8
:10134000062B41D8DFE803F0044043404540470006
:1013500018215720FFF7AEFA08215620FFF7AAFA06
:1013600031465020FFF7A6FA29460698FFF77EFA85
:1013700080B2FFF78FFA01465120FFF7B5FA2946F0
:101380000598FFF773FA83B2B3F5807F94BF00F13D
:10139000FF31FF214FF0460098BFC9B2FFF78AFA2C
:1013A000474B1868FFF7ECFC0120FFF7B9FA044639
:1013B00002210120FFF77EFA0020FFF769FD214698
:1013C0000120FFF777FA0124204608B070BD3021D4
:1013D000BFE74021BDE75021BBE7012C6ED1A5F14D
:1013E0000803062B6AD8DFE803F0046937694D6902
:1013F0005B0010214820FFF75DFA08214720FFF726
:1014000059FA02213220FFF755FA0C213020FFF75C
:1014100051FA0121FF20FFF74DFA30213020FFF76C
:1014200049FA0021FF20FFF745FA31467020FFF707
:1014300041FA29460798FFF719FA9DF8033080B260
:101440001BB1BDF80E30184480B2FFF723FA0146F5
:101450007120FFF749FAA3E728214820FFF72AFA6D
:1014600008214720FFF726FA03213220FFF722FA4E
:1014700009213020FFF71EFA0121FF20FFF71AFA99
:101480002021CBE738214820FFF714FA0821472014
:10149000FFF710FA03213220FFF70CFA0821E8E7E2
:1014A00048210846FFF706FA08214720FFF702FA0D
:1014B00003213220FFF7FEF90721DAE7002483E752
:1014C000E000002010B504464FF40061094801F027
:1014D000ACF801212046084B084A00F0DAFD08B1BB
:1014E00000F010F8054B1B68122B02BF0122044BC1
:1014F0001A7010BD000C0140EE000020F800002022
:10150000ED00002008B572B6044C20464FF400618F
:1015100001F08BF8C82000F09DFBF6E7000C0140BD
:1015200010B594B0142200210CA802F0E5FA1422A0
:1015300000210DEB020002F0DFFA1022002101A8C9
:1015400002F0DAFA02244FF480330122CDE911438C
:10155000CDE90A234FF4E0130AA80E92139301F089
:10156000E1FC08B1FFF7CEFF0F23CDE905344FF4BE
:1015700080630790CDE90830214605A801F094FE6C
:101580000028EFD14FF4004301A80194039301F028
:1015900047FF0028E6D114B010BD00002DE9F0414E
:1015A0008EB000F033FBFFF7BBFF102200210DEBE4
:1015B000020002F0A1FA954B00249A694FF480478B
:1015C00042F010029A619A694FF4004102F0100251
:1015D0000092009A9A698E4842F020029A619A69B4
:1015E0008C4D02F020020192019A9A69012642F084
:1015F00004029A619A694FF0020802F00402029212
:10160000029A9A6942F008029A619B69002203F0EB
:1016100008030393039B01F003F801224FF4E05108
:101620007D4800F0FDFF00224FF441417A4800F070
:10163000F7FF774804A9CDE90475069400F016FF7A
:101640004FF40043724804A9CDE904360694CDF85E
:101650001C8000F00BFF03236F4804A9CDE904347C
:10166000069400F003FF4FF45D436B4804A9CDE9F5
:101670000436CDE9064800F0F9FE4FF408536648F9
:1016800004A9CDE904350694644D00F0EFFE644BE7
:1016900028462B604FF46023CDE904440694AC60E7
:1016A0002C732C75EB616C602E6100F089FB08B126
:1016B000FFF728FFCDE90406069004A9284600F0AC
:1016C000DBFA0028F4D10423564D57494FF08074BB
:1016D000C5E900134FF44023C5E903434FF4401319
:1016E000A860C5E90530A883284600F0E7FB04465A
:1016F0000028DDD14FF410734FF00C08CDE9043011
:10170000CDE906300D23CDE90A0604A92846474D48
:101710000D93CDE908680C9600F04BFC444B454A0C
:101720002846C5E90023C5E90244C5E90474C5E9B2
:1017300006442C6201F080F903460028B8D14FF42A
:10174000E1343D483D4AC0E90233C0E90438C0E90C
:101750000633C0E9002401F04DFF03460028A7D15D
:101760003748384AC0E90233C0E90024C0E90438E8
:10177000C0E9063301F03EFF0446002898D129460F
:101780003046FFF7B1FBA0B122464FF4006122487A
:1017900000F046FF22464FF480511F4800F040FF02
:1017A0001D4822464FF4806100F03AFF264802F0BF
:1017B000C3F800224FF40061174800F031FF002207
:1017C0004FF48051144800F02BFF00224FF4806149
:1017D000114800F025FF1D48FFF70EF90A210020EF
:1017E000FFF79CFD0E210120FFF798FD1848FFF739
:1017F000C7FA184802F0A0F8174C04A8FFF77EF9C2
:101800000146204602F032F8F7E700BF0010024020
:101810000010014000001110000C014014010020D4
:101820000024014044010020006400406C010020BD
:10183000A086010000540040C00100200038014093
:1018400008020020004400405046000800004843C1
:10185000E093040059460008614600080E4B82B030
:101860009A6942F001029A619A6902F001020092BB
:10187000009ADA6942F08052DA61DB69074A03F0C4
:1018800080530193019B536823F0E06343F080632E
:10189000536002B0704700BF0010024000000140DA
:1018A00010B5044686B01022002102A802F024F9E7
:1018B0002268104B9A421BD103F56C439A690E487B
:1018C00042F400729A619A6902A902F400720092CD
:1018D000009A9A6942F004029A619B69012203F01E
:1018E00004030193019B0323CDE9022300F0BEFD15
:1018F00006B010BD002401400008014010B50446A8
:1019000086B01022002102A802F0F6F82268194BD6
:101910009A422DD103F5D633DA69174842F00072A6
:10192000DA61DA6902A902F000720092009A9A69FB
:1019300042F004029A619B6903F004030193019B46
:101940004FF40063029300F091FD4FF480520223A4
:10195000CDE902230323084802A9059300F086FD80
:1019600000221520114600F02FFD152000F05CFD2F
:1019700006B010BD006400400008014010B50446E8
:1019800086B01022002102A802F0B6F82268114B9E
:101990009A421CD1104CC022A369104843F008039E
:1019A000A361A36902A903F008030093009B12231B
:1019B000CDE902230323059300F058FDE36943F4C6
:1019C0000013E361E36903F400130193019B06B084
:1019D00010BD00BF0054004000100240000C014048
:1019E000102210B5044688B00DEB0200002102F071
:1019F00083F82368274A934229D1274B4FF400717B
:101A00009A69264842F480429A619A6902F48042B7
:101A10000092009A9A6942F004029A619B6903F06D
:101A200004030193019B0223CDE90413032304A9BA
:101A3000079300F01BFD4FF48063049300231748C5
:101A400004A9CDE9053300F011FD08B010BD144A1A
:101A50009342FAD1104B1148DA6904A942F40032DA
:101A6000DA61DA6902F400320292029A9A6942F06B
:101A700004029A619B69042203F004030393039B0D
:101A80000223CDE904230323079300F0EFFC08238E
:101A9000D3E700BF003801400010024000080140B9
:101AA00000440040FEE7FEE7FEE7FEE7FEE7704782
:101AB0007047704700F0BCB8014800F074BB00BF2D
:101AC0004401002070B50D4614460E46731B9C421F
:101AD00001DC204670BDAFF3008006F8010BF5E78E
:101AE00070B50D4614460E46731B9C4201DC204621
:101AF00070BD16F8010B00F02FF8F5E74FF0FF303E
:101B000070474FF4005300204B607047012070472E
:101B1000002070470B4A0346116810B509B90A49FD
:101B20001160106809490A4C0344091B8B4206D90D
:101B300002F030F80C2303604FF0FF3010BD13604B
:101B4000FCE700BF50020020A80300200050002046
:101B5000000400007047000007B54FF0FF3301900C
:101B6000012201A9034801F074FD019803B05DF85A
:101B700004FB00BF08020020FFF7ECFF0B480C49F4
:101B80000C4A002302E0D458C4500433C4188C42D9
:101B9000F9D3094A094C002301E013600432A24240
:101BA000FBD301F0FDFFFFF7F9FC704700000020B8
:101BB0006C000020D84600086C000020A403002020
:101BC000FEE7000038B50E4B05461A784FF47A73DD
:101BD000B3FBF2F30B4A1068B0FBF3F000F032FCF9
:101BE000044658B90F2D09D8024629464FF0FF3058
:101BF00000F0EAFB2046044B1D6038BD0120FCE7E5
:101C000008000020040000200C000020074A08B54E
:101C10001368032043F01003136000F0C3FB0F2090
:101C2000FFF7D0FFFFF71AFE002008BD002002409A
:101C3000034A044B11681B780B441360704700BFC4
:101C40005402002008000020014B1868704700BFB4
:101C50005402002038B50446FFF7F6FF0546631C22
:101C60001EBF044B1B78E418FFF7EEFF431BA34293
:101C7000FAD338BD08000020002373B5019390F813
:101C800024300446012B6CD0012380F824304D68A9
:101C90000268062D086805EB850322D81F26556BC0
:101CA000053B9E4025EA060500FA03F32B435363E8
:101CB00009288B6800EB40054FF0070129D9D66849
:101CC0001E3DA94026EA0101AB400B43D360A0F1C1
:101CD0001003012B25D90020002384F8243002B002
:101CE00070BD0C2D4FF01F0509D8166B233B9D408E
:101CF00026EA050500FA03F32B431363D8E7D66AF7
:101D0000413B9D4026EA050500FA03F32B43D362CD
:101D1000CEE71069A94020EA0101AB400B431361F3
:101D2000D9E7114B9A4216D193681B02D3D493681A
:101D3000102843F400039360CDD10C4B0C4A1B6870
:101D4000B3FBF2F30A2253430193019B002BC2D051
:101D5000019B013BF8E7A36A012043F02003A36243
:101D6000BAE70220BBE700BF0024014004000020C6
:101D700040420F0038B5036804469A68D10701D481
:101D8000002038BD9A6822F001029A60FFF75CFFDC
:101D9000054623689B68DB07F2D5FFF755FF401B1C
:101DA0000228F6D923689B68DA07F2D5A36A0120D6
:101DB00043F01003A362E36A43F00103E362E0E748
:101DC000F8B5044600286DD0836A23B9C36280F851
:101DD0002430FFF765FD2046FFF7CCFFA36A13F020
:101DE000100361D100285FD1A26A616822F4885291
:101DF00022F0020242F00202E569A668A262227B9A
:101E00002943B6F5807F41EA420136D0771E7D42F4
:101E10007D412D02277D012F06D182BBA269013AA7
:101E200045EA423242F400652268B6F5807F576881
:101E300027F4694745EA0705556097681D4D05EA8F
:101E4000070545EA0105956001D0012E02D12369FD
:101E5000013B1B05D56A25F470052B43D3629268BC
:101E6000154B1340994213D10023E362A36A23F078
:101E7000030343F00103A362F8BD3546CAE7A26A33
:101E800042F02002A262E26A42F00102E262CBE783
:101E9000A36A23F0120343F01003A362E36A43F042
:101EA0000103E3620120E7E7A36A43F01003A362A2
:101EB000F8E700BFFDF7E1FFFE0E1FFF38B504464F
:101EC00000286ED090F820300BB9FFF717FD22687C
:101ED000136843F001031360FFF7B6FE054623685D
:101EE0005A68D10751D51A6822F002021A60FFF72A
:101EF000ABFE054623685A68920754D4227E002020
:101F0000012A1A680CBF42F0800222F080021A6097
:101F1000627E012A1A680CBF42F0400222F04002A1
:101F20001A60A27E012A1A680CBF42F0200222F039
:101F300020021A60E27E012A1A680CBF22F0100209
:101F400042F010021A60227F012A1A680CBF42F088
:101F5000080222F008021A60627F012A1A680CBF88
:101F600042F0040222F004021A60D4E902210A437A
:101F700021690A4361690A43616801390A43DA61E8
:101F80000123606284F8203038BDFFF75DFE401BFE
:101F90000A28A4D9636A43F400336362052384F8F2
:101FA00020300120F0E7FFF74FFE401B0A28A1D99F
:101FB000F0E770B590F820200368013A012A62D852
:101FC0000120D3F8002242F00102C3F800224A693E
:101FD000D3F81C5202F01F04A04025EA0005C3F804
:101FE0001C52CD69C44395BBD3F80C52CE68254032
:101FF000C3F80C528D8803EBC20245EA0645C2F8CD
:1020000040528E680D8845EA0645C2F844528A69F6
:102010007ABBD3F804222240C3F804220A6962BBC7
:10202000D3F814221440C3F814420A6A012A04BFE8
:10203000D3F81C2202434FF0000008BFC3F81C2253
:10204000D3F8002222F00102C3F8002270BD012D56
:10205000DDD1D3F80C520E680543C3F80C528D88BD
:1020600003EBC20245EA0645C2F840528E688D89EC
:10207000C9E7D3F804220243CEE7D3F8142202437F
:10208000C3F81422D1E7436A43F48023436201205A
:10209000DCE7F0B50446084694F820100139012920
:1020A00071D8266840B9F168890707D1636A43F49B
:1020B0000013012063625AE03169F5E706EB001571
:1020C000D5F8B071010107F004079760002F4FD1D8
:1020D000D5F8B0717F0D1760D5F8B0710E4407F0D8
:1020E0000207D760D5F8B4713F074EBF0827D5F86F
:1020F000B47107F00F071761D5F8B471D5F8B45172
:10210000C7F307272D0C97615561D6F8B8211A70CF
:1021100022680A44D2F8B821120A5A7022680A4486
:10212000D2F8B821120C9A7022680A44D2F8B82169
:10213000120EDA7022680A44D2F8BC211A712268A1
:102140000A44D2F8BC21120A5A7122680A44D2F811
:10215000BC21120C9A7122680A44D2F8BC21120EDA
:10216000DA71236848B9DA6842F02002DA60F0BD1B
:10217000D5F8B071FF085760AEE71A69002042F049
:1021800020021A61F3E7636A43F4802391E7704702
:102190007047704770477047704770477047704787
:1021A0007047704770472DE9F84F036805465E6930
:1021B000D3F8049016F001049F68D3F80CB0D3F85C
:1021C00010A0D3F8188022D017F0010407D0012204
:1021D000B9079A6040F1A580FFF7D9FF0024FB05FD
:1021E00009D54FF480722B68B8059A6040F1A7803A
:1021F0002846FFF7CDFFFB0309D54FF480322B684B
:10220000B8039A6040F1A9802846FFF7C2FF330760
:1022100007D51BF0100F1FBF10222B6844F4007469
:10222000DA60770708D51BF0080F05D008222B6865
:102230002846DA60FFF7B2FFB00706D52B68DB68E7
:10224000990702D02846FFF7A8FF720607D51AF0B3
:10225000100F1FBF10222B6844F480641A61B3066C
:1022600008D51AF0080F05D008222B6828461A61F5
:10227000FFF795FFF70606D52B681B69980702D074
:102280002846FFF71FF9B10308D519F0100F05D044
:1022900010222B6828465A60FFF782FFF20308D508
:1022A00019F0080F05D008222B6828465A60FFF75E
:1022B00078FF33042CD519F0040F2A6826D0F705CF
:1022C00004D518F0010F18BF44F00104B00504D57F
:1022D00018F0020F18BF44F00204710504D518F07D
:1022E000040F18BF44F0040433050FD518F0700331
:1022F0000CD0402B4FD03ED8202B46D0302B47D08F
:10230000102B3FD0936923F0700393610423536033
:102310002CB16B6A284623436B62FFF743FFBDE88D
:10232000F88F7A0705D417F0080405D1FFF732FFBC
:1023300055E74FF4006452E74FF480544FE77905B6
:1023400002D544F4005456E73A0502D544F48044DB
:1023500051E72846FFF71FFF4DE7790302D544F404
:10236000004454E73A0302D544F480344FE728464A
:10237000FFF712FF4BE7502B10D0602BC2D144F473
:102380008074BFE744F00804BCE744F01004B9E7E8
:1023900044F02004B6E744F04004B3E744F080047E
:1023A000B0E7000007490302CA6803F4E06322F4BF
:1023B000E0621204120C134343F0BF6343F4003392
:1023C000CB60704700ED00E0154B30B5DC68C4F31E
:1023D0000224C4F10703251D042B28BF0423062D66
:1023E0004FF0FF3594BF0024033C05FA03F321EAC4
:1023F0000303A54022EA0502A340002843EA0203A2
:10240000ACBF00F16040074A4FEA0313DBB2ABBF39
:1024100000F5614000F00F0080F80033135430BD28
:1024200000ED00E014ED00E0002807DB0123410986
:10243000034A00F01F00834042F82130704700BF7C
:1024400000E100E00138B0F1807F0BD24FF0E023D3
:10245000F021054A586182F8231000200722986174
:102460001A6170470120704700ED00E02DE9F74F39
:1024700000221646644F654BDFF894C1DFF894E103
:102480000D6835FA06F402D103B0BDE8F08F4FF0C5
:10249000010808FA06F805EA080438EA05057AD1C1
:1024A0004D68032D07D8013D022D00F28780DFE83B
:1024B00005F0959AA000122D00F098806DD8112D8E
:1024C00000F08E80FF2C98BF82464FF00F0988BF26
:1024D00000F1040A4FEA8605DAF8008088BF203D43
:1024E00009FA05FB28EA0B0802FA05F548EA050592
:1024F000CAF80050D1F804A01AF0805F4BD0BD6933
:1025000026F0030845F00105BD61BD6908F180486A
:1025100005F00105019508F5803806F0030B019DD3
:102520004FEA8B0BD8F8085009FA0BF925EA09098C
:10253000394DA84261D005F58065A8425FD005F508
:102540008065A8425DD005F58065A8420CBF0325D3
:10255000042505FA0BF545EA0905C8F808509D68F9
:102560001AF4801F14BF2543A5439D60DD681AF44B
:10257000001F14BF2543A543DD605D681AF4003FCA
:1025800014BF2543A5435D601D681AF4803F14BF46
:102590002543A5431D60013672E7DFF880904D4565
:1025A0000CD017D8A9F580194D4507D009F5702929
:1025B0004D4503D0A9F580194D4583D18A68D2B124
:1025C000012A08BFC0F810804FF0080218BFC0F8F9
:1025D000148077E76545F1D07545EEE7CA6871E785
:1025E000CA6804326EE7CA6808326BE7CA680C3200
:1025F00068E7002266E7042264E70025A9E70125D1
:10260000A7E70225A5E700BF001002400004014033
:1026100000003110000032100008014000002210BC
:102620000AB1016170470904FBE7C36801EA0302CC
:1026300021EA030141EA0241016170470168002279
:102640004B6913F4806310D06FF480634B612023D7
:10265000026380F83D3080F83E20036C80F83C2017
:1026600043F00403036401207047184670472DE9C6
:10267000F84606460F4691461D464FEA114A336812
:10268000BAF1010F0CBF5C699C6927EA0404A4B28B
:10269000B4FA84F46409A14501D0002025E06A1C45
:1026A000EED0FFF7D1FA089BC01AA84201D8002D3E
:1026B000E5D13368BAF1010F0CBF5B699B6927EA6A
:1026C00003039BB2B3FA83F35B099945D7D1002387
:1026D00020220120336386F83D2086F83E30326C9C
:1026E00086F83C3042F020023264BDE8F8862DE9DD
:1026F000F04104460F46164698462568686927EA61
:10270000000080B2B8B16B695A0516D52B6820223B
:1027100043F400732B606FF480636B6100232363C9
:1027200084F83D2084F83E30226C42F004020120FF
:10273000226484F83C30BDE8F081731CDED0FFF7E2
:1027400083FAA0EB0800B04201D8002ED5D123684F
:102750005A6927EA020292B2002ACED00023202230
:10276000236384F83D2084F83E30226C42F020023E
:10277000DDE770B504460D46164623685B691B0607
:1027800001D5002070BD2046FFF758FFC8B96A1C6C
:10279000F3D0FFF759FA801BA84201D8002DECD1E5
:1027A00023685B6913F08003E7D12022236384F858
:1027B0003D2084F83E30226C84F83C3042F0200208
:1027C00022640120DEE700002DE9F043154602688F
:1027D0009946136885B043F480731360DDE90C7883
:1027E0000E463B4600224FF00111CDF80080044612
:1027F000FFF73DFF236838B11B68DB0502D54FF4B6
:102800000073236403200AE006F0FE061E613A46C8
:10281000434620461749FFF76AFF18B1012005B06B
:10282000BDE8F083236803905A69394603929B6997
:10283000424603932046039BFFF79BFF40B1236C66
:10284000042B01BF2268136843F400731360E5E7AB
:10285000B9F1010F236802D1EDB21D61DFE72A0A49
:102860001A61394642462046FFF783FF0028E6D129
:102870002368F1E7020001002DE9FF479A46DDE9F0
:102880000C78036815461A680E4642F480621A6096
:102890001A684FF0011142F480721A603B46002220
:1028A000CDF800800446FFF7E2FE236848B11B68BC
:1028B000DB0502D54FF400732364032004B0BDE8A8
:1028C000F0875FFA86F906F0FE061E613A46434637
:1028D00020462949FFF70BFF08B10120EEE72368E6
:1028E00003905A69394603929B69424603932046F6
:1028F000039BFFF73EFF40B1236C042B01BF22680E
:10290000136843F400731360E7E7BAF1010F23681B
:102910001AD1EDB24246394620461D61FFF729FF24
:1029200002460028E8D1216820460B6843F48073F2
:102930000B603B464FF00111CDF80080FFF797FE8A
:10294000226860B11368B3E72A0A1A613946424621
:102950002046FFF70EFF0028CED12368D9E749F0C3
:1029600001031361204643463A460349FFF7BFFE81
:10297000003818BF0120A1E70200010070B504462D
:102980000D46164623685B695B0701D5002070BDC4
:102990002046FFF753FEC8B96A1CF3D0FFF754F97D
:1029A000801BA84201D8002DECD123685B6913F08D
:1029B0000403E7D12022236384F83D2084F83E30CD
:1029C000226C84F83C3042F0200222640120DEE7D1
:1029D00070B504460D46164621684B6913F0400356
:1029E00001D0002010E04A69D2060ED56FF0100227
:1029F0004A612022236384F83D2084F83E30226C13
:102A00000120226484F83C3070BDFFF71DF9801B63
:102A1000A84201D8002DDFD123685B6913F0400381
:102A2000DAD12022236384F83D2084F83E30226CE2
:102A300042F02002E4E7000070B5044608B9012026
:102A400070BD90F83D3003F0FF021BB980F83C20C8
:102A5000FEF794FF242384F83D3023681A6822F09F
:102A600001021A601A6842F400421A601A6822F4DD
:102A700000421A6000F0B4FC3F4B65689D4294BF71
:102A80003E4B3F4B98428CBF00230123002BD6D1F5
:102A9000394E3C4BB542B0FBF3F388BF4FF496760A
:102AA0002268516821F03F0141EA030182BF73436C
:102AB0004FF47A76B3FBF6F35160116A013321F0DB
:102AC0003F010B431362D169431E2B4821F44F4150
:102AD000854221F0FF0132D86D00B3FBF5F340F6DB
:102AE000FC700133034242D0C3F30B031943D1619D
:102AF0001168D4E9073021F0C00103430B43136090
:102B00009168D4E9030321F40341034321F0FF0159
:102B10000B439360D168D4E9053021F0FF010343F2
:102B20000B43D3601368002043F00103136020239C
:102B3000206484F83D30206384F83E0080E7A0687C
:102B400050B905EB4505B3FBF5F30133C3F30B03B4
:102B50007BB143F40043C9E719206843B3FBF0F3AA
:102B60000133C3F30B0323B143F44043BEE7042313
:102B7000BCE70123BAE700BFA08601007F841E00E6
:102B8000FF083D0040420F002DE9F74304469946F7
:102B90000F4690460C9EFFF757F894F83D300546D7
:102BA000202B03D0022003B0BDE8F083009019234E
:102BB000012220463A49FFF75AFD0028F2D194F845
:102BC0003C30012BEED00123206884F83C300368B0
:102BD0004246D90758BF036839465CBF43F001033A
:102BE0000360036823F400630360212384F83D300D
:102BF000402384F83E30002323640A9B204663620E
:102C0000BDF82C30CDE900656385638D2385254BA8
:102C1000E3624B46FFF7D8FD00282AD00120C2E727
:102C2000FFF7A7FD40B1236C042B01BF2268136896
:102C300043F400731360F1E7636A27681A4612F8D9
:102C4000011B39616262628D218D013A92B2628507
:102C50007A69481E80B2520720850AD548B15A7851
:102C600002333A616362638D0239013B9BB2218575
:102C70006385238D2A4631462046002BD0D1FFF7AD
:102C80007DFE0028CFD12268136843F400731360DF
:102C9000202384F83C0084F83D3084F83E0082E72D
:102CA000020010000000FFFF2DE9F04399460023C9
:102CB000044689B003930D469046129FFEF7C4FF69
:102CC00094F83D300646202B04D00225284609B052
:102CD000BDE8F08300901923012220468D49FFF7BB
:102CE000C6FC0028F1D194F83C30012BEDD0012333
:102CF000206884F83C3003682946DB0758BF036826
:102D000042465CBF43F001030360036823F40063A1
:102D10000360222384F83D30402384F83E300023B2
:102D20002364109B20466362BDF84430CDE90076F1
:102D30006385638D2385784BE3624B46FFF79CFDEB
:102D4000054608B10125C1E7228D2368C2B9049068
:102D50005A6904929A690492049A1A6842F40072B9
:102D60001A60DFF8B881DFF8B891238D002B37D1D6
:102D7000202284F83C3084F83D2084F83E30A5E7DA
:102D8000012A11D11A6822F480621A6072B623688F
:102D900005905A6905929A690592059A1A6842F453
:102DA00000721A6062B6DCE7022A1A680ED142F499
:102DB00000621A6072B6236806905A6906929A6990
:102DC0000692069A1A6822F48062EAE742F4806268
:102DD0001A6007905A6907929B690793079BC0E79F
:102DE000032B78D8012B15D1324639462046FFF700
:102DF000EFFD0028A6D123681A69636A1A70636A16
:102E000001336362238D013B2385638D013B9BB2BC
:102E10006385AAE7022B4FF000023B46414620465D
:102E2000009618D1FFF723FC00288BD172B62368D7
:102E30001A6842F400721A601A69636A1A70636A47
:102E400001336362238D013B2385638D013B9BB27C
:102E5000638562B6CFE7FFF70AFC00287FF472AF04
:102E60002268136823F48063136072B646F2A811D7
:102E700023681A69636A1A70626A531C6362238D3D
:102E8000013B2385638D013B9BB26385D9F80030FC
:102E9000B3FBF1F323214B430393039B013B0393C8
:102EA000039B6BB92022236384F83D2084F83E30D5
:102EB000226C42F02002226462B684F83C3041E782
:102EC000236859694807E8D5196841F40071196009
:102ED0001B695370B3E7324639462046FFF778FD49
:102EE00000287FF42FAF23681A69636A1A70626A38
:102EF000531C6362238D013B2385638D013B9BB291
:102F000063852368596949077FF52FAF1B695370A3
:102F100075E700BF020010000000FFFF0400010081
:102F2000040000202DE9F341054638B30368DB07B0
:102F300010D42B689F075ED42B68190700F1958089
:102F40002B685A0700F1C180E869002840F02C8105
:102F5000002029E0904C636803F00C03042B07D099
:102F6000636803F00C03082B0AD16368DE0307D5FE
:102F700023689C03DDD56B68002BDAD1012013E0B8
:102F80006B68B3F5803F12D1236843F4803323602C
:102F9000FEF75AFE064623689803CAD4FEF754FE8D
:102FA000801B6428F7D9032002B0BDE8F0819BB9EB
:102FB000236823F480332360236823F48023236071
:102FC000FEF742FE064623689903B2D5FEF73CFEA3
:102FD000801B6428F7D9E6E7B3F5A02F236803D157
:102FE00043F480232360CFE723F4803323602368F6
:102FF00023F48023CBE7684C636813F00C0F07D0F1
:10300000636803F00C03082B10D16368DA030DD456
:1030100023689B0702D52B69012BAFD123686A690E
:1030200023F0F80343EAC203236085E72A695B4B78
:103030006AB101221A60FEF707FE064623689F0761
:10304000ECD4FEF701FE801B0228F7D9ABE71A602B
:10305000FEF7FAFD0646236898077FF56DAFFEF789
:10306000F3FD801B0228F6D99DE7AA694A4E4B4B17
:10307000E2B10122C3F88024FEF7E6FD0446736A3C
:103080009B070DD54FF4FA52454B1B68B3FBF2F387
:10309000019300BF019B5A1E0192002BF9D14FE70B
:1030A000FEF7D2FD001B0228E9D97CE7C3F8802493
:1030B000FEF7CAFD0446736A9F077FF541AFFEF72E
:1030C000C3FD001B0228F6D96DE7334CE369D80035
:1030D00024D40127E36943F08053E361E36903F0FB
:1030E00080530093009B2F4E3368D90518D5EB68A9
:1030F000012B26D1236A43F001032362FEF7A4FDCE
:1031000041F288380646236A9B073FD5002F3FF4DB
:103110001BAFE36923F08053E36115E70027E2E783
:10312000336843F480733360FEF78EFD8046336866
:10313000DA05DCD4FEF788FDA0EB08006428F6D998
:1031400031E7ABB9236A41F2883823F001032362E7
:10315000236A23F004032362FEF776FD0646236A02
:103160009807D3D5FEF770FD801B4045F7D91AE7C5
:10317000052B236A03D143F004032362BAE723F04B
:1031800001032362236A23F00403B6E7FEF75CFD24
:10319000801B4045B7D906E70010024000004242BC
:1031A00004000020007000402A4C636803F00C0308
:1031B000082B3ED00022284B02281A662CD1FEF79D
:1031C00043FD06462368990120D42B6AB3F5803F5E
:1031D00005D16268A96822F400320A436260696A14
:1031E00062680B4322F474121343012263601A4B8A
:1031F0001A66FEF729FD054623689A013FF5A8AE39
:10320000FEF722FD401B0228F6D9CCE6FEF71CFD96
:10321000801B0228D6D9C6E6FEF716FD05462368B0
:103220009B017FF595AEFEF70FFD401B0228F6D9F6
:10323000B9E601283FF4B8AE63682A6A03F4803126
:1032400091427FF49BAE6A6A03F4701393423FF499
:103250007FAE93E600100240000042420D4A5368E0
:1032600003F00C01082912D10B48C3F38341DB039F
:10327000405C09D55368094AC3F340435043084AA8
:10328000D35CB0FBF3F07047064B584370470348DC
:10329000704700BF001002408846000800127A0004
:1032A0009846000800093D002DE9F0410D4604460E
:1032B00010B90120BDE8F081444A136803F0070308
:1032C0008B4228D321688E0730D4CA0743D43F4AA3
:1032D000136803F00703AB4265D822683C4D12F037
:1032E000040F6CD1130706D56B68226923F4605371
:1032F00043EAC2036B60FFF7B1FF6B68354AC3F363
:103300000313D35CD840344B1860344B1868FEF775
:1033100059FC0020CEE7136823F007030B4313602A
:10332000136803F007038B42C3D1CBE7284B11F09E
:10333000040F1EBF5A6842F4E0625A60080742BF99
:103340005A6842F460525A605A68A06822F0F0024B
:1033500002435A60B9E762681D4E012A33681AD1E8
:1033600013F4003FA5D0736841F2883823F00303BB
:1033700013437360FEF768FC07467368626803F0E6
:103380000C03B3EB820FA2D0FEF75EFCC01B4045DE
:10339000F3D903208EE7022A02D113F0007FE1E780
:1033A00013F0020FDEE7136823F007032B431360CB
:1033B000136803F00703AB427FF47BAF8DE76B68C4
:1033C000E16823F4E0630B436B608BE7002002406D
:1033D0000010024070460008040000200C0000208D
:1033E000044B054A5B68C3F30223D35C034A1068AD
:1033F000D8407047001002408046000804000020BA
:10340000044B054A5B68C3F3C223D35C034A1068CC
:10341000D840704700100240804600080400002099
:1034200003682DE9F341D907054621D5364CE369F8
:10343000DA0033D40126E36943F08053E361E369A2
:1034400003F080530193019B304F3B68DB0527D588
:10345000236A6A6813F4407336D1236A6A6823F4D6
:103460004073134323621EB1E36923F08053E36189
:103470002868830706D52449AB684A6822F440428D
:103480001A434A6010F010001BD01F4AE9685368C5
:10349000002023F480030B43536012E00026D3E79F
:1034A0003B6843F480733B60FEF7CEFB80463B688D
:1034B000D805CDD4FEF7C8FBA0EB08006428F6D9E8
:1034C000032002B0BDE8F08102F440729A42C4D0F9
:1034D00001200F4A236AC2F84004002023F44071FF
:1034E000C2F840042162D907B7D5FEF7ADFB41F21F
:1034F00088380746236A9A07AFD4FEF7A5FBC01B9E
:103500004045F7D9DCE700BF0010024000700040E2
:103510000000424210B504460368C1681A6922F4EB
:1035200040520A431A6182680069D968024360699F
:1035300021F4B05121F00C0102430A43DA605A69C8
:10354000A16922F440720A435A610E4A934215D18E
:10355000FFF756FF19234343626820689200B3FBCC
:10356000F2F36422B3FBF2F102FB11331B0132339D
:10357000B3FBF2F303EB0113836010BDFFF730FFE1
:10358000E8E700BF00380140F8B504460E4617468C
:103590001D462268136836EA030301D1002028E0A3
:1035A0006B1CF7D025B1FEF74FFBC01B8542F0D254
:1035B000226802F10C0353E8003F23F4D0730C326D
:1035C00042E8003021680028F2D101F1140353E8E9
:1035D000003F23F0010301F1140040E80032002A0B
:1035E000F3D12023032084F8413084F8402084F86C
:1035F0004230F8BD10B5044648B390F8413003F0AE
:10360000FF021BB980F84020FEF7EAF92423226864
:1036100084F84130D368204623F40053D360FFF789
:1036200079FF236800201A6922F490421A615A69CE
:1036300022F02A025A61DA6842F40052DA6020234A
:10364000606484F8413084F84230606310BD01202A
:10365000FCE72DE9F843994690F841300446202BC9
:103660000E4617463CD100293CD0002A3AD02123EF
:103670000025456480F84130FEF7E6FAA3688046ED
:10368000B3F5805FA784E78403D123690BB935467E
:103690001E46E38C9BB253B94B464246402120461E
:1036A000FFF772FF50B9202384F8413007E04B4602
:1036B000424680212046FFF767FF10B10320BDE896
:1036C000F88322684EB935F8023BC3F30803536010
:1036D000E18C013989B2E184DBE716F8013BF6E7BA
:1036E0000220ECE70120EAE7002310B50446C0E918
:1036F0000033C0E90433836081814366C281836102
:10370000194608225C3000F0F7F90D4B2462636221
:103710000C4BA3620C4BE3620C4B23630C4B9C429F
:1037200006D003F16802944202D0D0339C4205D106
:1037300004F15800BDE8104000F056BA10BD00BFBB
:10374000493900086B390008A3390008C739000857
:1037500058020020024A0349034800F069B800BF3C
:1037600010000020A54400081C00002041680C4BFC
:1037700010B59942044601D000F094FEA168094BAF
:10378000994202D0204600F08DFEE168064B994236
:1037900004D02046BDE8104000F084BE10BD00BF3C
:1037A00058020020C00200202803002010B50B4B57
:1037B0000B4C0C4A20461A6004210022FFF794FFAC
:1037C00004F1680001220921FFF78EFF04F1D00007
:1037D0000222BDE810401221FFF786BF90030020AF
:1037E0005802002055370008014800F0FEB900BF1C
:1037F00099030020014800F0F9B900BF99030020A7
:1038000010B50446FFF7F0FF236A1BB1BDE8104076
:10381000FFF7F0BF044B2362044B1B68002BF5D16C
:10382000FFF7C4FFF2E700BF6D37000890030020E8
:103830002DE9F8430746884614460026D4E9019549
:10384000B9F1010905D52468002CF7D13046BDE84F
:10385000F883AB89012B07D9B5F90E30013303D0BA
:1038600029463846C04706436835E9E70FB407B52F
:10387000064904AB086853F8042B8168019300F0F3
:10388000E1FA03B05DF804EB04B070476800002073
:10389000036A70B505460E4684680BB9FFF7B0FFA2
:1038A000636EDB0705D4A389980502D4A06D00F0F0
:1038B0009CF9A389190713D523698BB1013EA3682D
:1038C00016F8011F013BA360E9B9002B2EDA22464E
:1038D0000A21284600F07BF8013007D00A2507E0CE
:1038E0002146284600F0B0F80028E7D04FF0FF3519
:1038F000636EDA0705D4A3899B0502D4A06D00F09E
:1039000075F9284670BD002B04DAA2699A4206DCDC
:103910000A2904D023685A1C22601970CFE7224676
:10392000284600F054F80130C9D1DFE70A252368A2
:103930005A1C22601D70DBE7024B01461868FFF736
:10394000A7BF00BF6800002010B50C46B1F90E10EB
:1039500000F0FCF80028ABBF636DA3891B1823F4AB
:103960008053ACBF6365A38110BD2DE9F0411F46B4
:103970008B890546DB050C46164605D50223002239
:10398000B1F90E1000F0D0F8A389324623F4805329
:10399000A38128463B46B4F90E10BDE8F04100F083
:1039A000E7B810B50C46B1F90E1000F0BDF8431C95
:1039B000A38915BF606523F4805343F48053A3812A
:1039C00018BFA38110BDB1F90E1000F09DB8F8B575
:1039D0000E461446054618B1036A0BB9FFF710FFEF
:1039E000A369A360A3891A0725D523691BB323689C
:1039F0002269F6B2981A63693746834204DC21468D
:103A0000284600F04FFDE0B9A368013BA36023689E
:103A10005A1C22601E706269431C9A4204D0A3891A
:103A2000DB0706D50A2E04D12146284600F03AFDD0
:103A300038B93846F8BD2146284600F005F8002878
:103A4000D5D04FF0FF37F4E738B52A4B0546186854
:103A50000C4618B1036A0BB9FFF7D2FEA389B4F97B
:103A60000C20180722D4D90607D409232B6042F072
:103A700040034FF0FF30A38134E0580712D5616B4B
:103A800041B104F14403994202D0284600F0BEF847
:103A900000236363A38923F02403A38100236360CD
:103AA00023692360A38943F00803A38123694BB9E9
:103AB000A38903F42073B3F5007F03D02146284681
:103AC00000F03DFDA089B4F90C2010F001030AD0EC
:103AD0000023A36063695B42A361236943B910F0CB
:103AE0008000C4D138BD810758BF6369A360F4E783
:103AF0000020F7E76800002003460244934200D10B
:103B0000704703F8011BF9E738B50023054D04465B
:103B100008462B60FDF7F2FF431C02D12B6803B16E
:103B2000236038BD9403002038B50446084611468A
:103B30000022054D2A601A46FDF7EAFF431C02D118
:103B40002B6803B1236038BD9403002038B50446C8
:103B5000084611460022054D2A601A46FDF7B2FFBD
:103B6000431C02D12B6803B1236038BD94030020AD
:103B700038B50446084611460022054D2A601A460B
:103B8000FDF7AEFF431C02D12B6803B1236038BDA3
:103B900094030020014B1868704700BF68000020A4
:103BA00070B500260C4D0D4C641BA410A64209D123
:103BB00000F042FD00260A4D0A4C641BA410A642E8
:103BC00005D170BD55F8043B98470136EEE755F82E
:103BD000043B98470136F2E7D0460008D04600087B
:103BE000D0460008D44600087047704770470A4422
:103BF000914200F1FF3300D1704710B511F8014B2D
:103C0000914203F8014FF9D110BD000038B50546C7
:103C1000002940D051F8043C0C1F002BB8BFE41819
:103C200000F0DCF81C4A136833B96360146028465E
:103C3000BDE8384000F0D8B8A34208D92068211860
:103C40008B4201BF19685B6809182160EDE71A46CD
:103C50005B680BB1A342FAD911685018A0420BD18E
:103C600020680144501883421160E0D118685B68F5
:103C7000084410605360DAE702D90C232B60D6E7C2
:103C8000206821188B4201BF19685B680918216000
:103C900063605460CBE738BD9C03002070B50E4EC6
:103CA0000C463168054611B900F0A8FC3060214689
:103CB000284600F0A3FC431C0AD0C41C24F00304D3
:103CC000A04207D0211A284600F098FC013001D10B
:103CD0004FF0FF34204670BDA00300202DE9F843CB
:103CE000CD1C25F0030508350C2D38BF0C25002D03
:103CF000074601DBA94205D90C2300263B6030466C
:103D0000BDE8F883DFF8D08000F068F8D8F800301C
:103D10001C465CBB29463846FFF7C0FF431C0446DF
:103D200055D1D8F800402646002E45D1002C48D069
:103D300023683146384604EB030900F05FFC8145F7
:103D40003FD1216838466D1A2946FFF7A7FF013099
:103D500037D023682B442360D8F80030002B38D0AC
:103D60005A68A2422BD100225A600FE02268521BEF
:103D70001FD40B2A17D96119A342256018BF5960B7
:103D8000636808BFC8F8001062514B60384604F100
:103D90000B0600F029F826F00706231DF21AAED014
:103DA0009B1BA350ABE7A3426268DDD1C8F800209B
:103DB000ECE723466468ACE734467668B4E713461C
:103DC000CCE70C2338463B6000F00EF897E72560FF
:103DD000DCE75B60FFDE00BF9C0300200148FFF7CB
:103DE00004BF00BF980300200148FFF7FFBE00BFDB
:103DF00098030020936810B4013B002B936007DA0E
:103E00009469A34201DB0A2902D110BCFFF7DFBD90
:103E10001368581C10601970084610BC7047F8B53C
:103E200006460F461446D518AC4201D1002007E0E3
:103E30003A46304614F8011BFFF7DCFF431CF3D170
:103E4000F8BD00002DE9F04F0D4614469846064691
:103E50009DB018B1036A0BB9FFF7D2FC6B6ED9079E
:103E600005D4AB899A0502D4A86DFFF7BEFEAB89D5
:103E70001B0701D52B699BB929463046FFF7E4FDA6
:103E800070B16B6EDC0704D54FF0FF301DB0BDE89C
:103E9000F08FAB899805F7D4A86DFFF7A7FEF3E77D
:103EA0000023099320238DF8293030234FF0010996
:103EB000CDF80C80DFF8AC818DF82A3023469A4685
:103EC00013F8012B0AB1252AF9D1BAEB040B0BD058
:103ED0005B46224629463046FFF7A1FF013000F03D
:103EE000A980099A5A4409929AF80030002B00F0F0
:103EF000A18000234FF0FF32CDE905230AF1010A2A
:103F0000049307938DF853301A935446052214F8FE
:103F1000011B544800F082FB049AD8B9D10644BF73
:103F200020238DF85330130744BF2B238DF85330D3
:103F30009AF800302A2B15D0544600204FF00A0C76
:103F4000079A214611F8013B303B092B4DD9B0B1FE
:103F5000079214E0A0EB080309FA03F31343A24607
:103F60000493D2E7039B191D1B680391002BBBBF71
:103F70005B4242F0020207930793B8BF0492237892
:103F80002E2B0CD163782A2B34D1039B02341A1DBB
:103F90001B680392002BB8BF4FF0FF330593DFF887
:103FA000C8A003225046217800F038FB38B14022E7
:103FB000049BA0EB0A00824013430134049314F8DD
:103FC000011B062229488DF8281000F027FB002845
:103FD0003FD0274B1BBB039B073323F0070308335A
:103FE0000393099B3B44099368E70C4601200CFBB3
:103FF0000232A6E700234FF00A0C1946013405935C
:10400000204610F8012B303A092A03D9002BC6D0DC
:104010000591C4E7044601230CFB0121F0E703AB43
:1040200000932A463046134B04A9AFF3008007469D
:10403000781CD6D16B6ED90705D4AB899A0502D40A
:10404000A86DFFF7D3FDAB895B063FF51DAF09985F
:104050001CE703AB00932A463046064B04A900F048
:104060007DF8E4E79A460008A0460008A446000848
:10407000000000001F3E00082DE9F0471646994653
:104080008A680B6907469342B8BF1346336091F8BC
:1040900043200C46DDF820800AB1013333602368E9
:1040A000990642BF336802333360256815F0060570
:1040B00006D104F1190AE36832689B1AAB422BDC83
:1040C00094F84320131E226818BF0123920630D4AF
:1040D0004946384604F14302C047013023D02368E3
:1040E000226903F00603042B14BF002533684FF048
:1040F000000608BFE56804F11A0408BFED1A54F879
:10410000123C08BF25EAE5759342C4BF9B1AED181F
:10411000B5421AD1002008E00123524649463846EC
:10412000C047013003D14FF0FF30BDE8F0870135C3
:10413000C1E73020E11881F843005A1C94F845107B
:104140002244023382F84310C2E701232246494643
:104150003846C0470130E6D00136D9E72DE9FF47A0
:104160000F7E9146782F80460C469A460C9D01F1B1
:10417000430207D8622F0AD8002F00F0D580582FAD
:1041800000F0C18004F1420584F842703AE0A7F1E2
:104190006303152BF6D801A151F823F0F54100086F
:1041A0000942000885410008854100088541000852
:1041B0008541000809420008854100088541000842
:1041C00085410008854100080F430008354200087A
:1041D000C9420008854100088541000831430008B4
:1041E00085410008354200088541000885410008E6
:1041F000D14200082B681A1D1B682A6004F1420591
:1042000084F842300123A0E020682B68070603F100
:104210000401296001D51E6803E04606FBD5B3F909
:104220000060002E03DA2D23764284F843300A23FF
:10423000594812E02B682068191D2960050601D530
:104240001E6802E04106FBD51E886F2F0CBF0823B5
:104250000A235148002184F843106568002DA8BF47
:104260002168A560A4BF21F0040121600EB9002DD2
:104270004BD01546B6FBF3F103FB1167C75D05F89C
:10428000017D3746BB420E46F4D9082B0BD123687B
:10429000DE0708D5236961689942DEBF302305F83F
:1042A000013C05F1FF35521B22614B462146404639
:1042B000CDF800A003AAFFF7DFFE01304AD14FF08E
:1042C000FF3004B0BDE8F087236843F0200323608B
:1042D0007827324884F84570236829681F0651F80A
:1042E000046B02D45F0648BFB6B2DF0748BF43F095
:1042F0002003296048BF23601EB9236823F02003F0
:1043000023601023A6E72448E4E71546BDE72B68A1
:104310002668181D6169286035061B6801D519607B
:1043200002E07006FBD51980002315462361BCE727
:104330002B6800211A1D2A601D686268284600F05B
:104340006DF908B1401B606063682361002384F845
:104350004330AAE72A46494640462369D047013000
:10436000ADD023689B0713D4E068039B9842B8BF85
:104370001846A6E70123324649464046D047013059
:104380009DD00135E36803995B1AAB42F2DCEBE7A1
:10439000002504F11906F5E7AB460008BC46000805
:1043A0008A89F8B5054610070C4657D44B68002B90
:1043B00004DC0B6C002B01DC0020F8BDE66A002E4B
:1043C000FAD0002312F480522F68216A2B6032D079
:1043D000606DA3895A0705D56368C01A636B0BB17A
:1043E000236CC01A00230246E66A2846216AB047B9
:1043F000431CA38906D129681D292BD8284A0A41C4
:10440000D60727D4002262602269D904226004D52D
:10441000421C01D12B6803B96065616B2F600029D4
:10442000CAD004F14403994202D02846FFF7EEFBBC
:1044300000206063C1E701232846B047411CC8D172
:104440002B68002BC5D01D2B01D0162B01D12F605E
:10445000B2E7A38943F04003A381AEE70F69002FC1
:10446000AAD0930718BF00230E6808BF4B69F61B3C
:104470000F608B60002E9FDD33463A462846216A46
:10448000D4F828C0E047002806DCA3894FF0FF30AD
:1044900043F04003A38190E70744361AEAE700BFE0
:1044A000FEFFBFDF38B50B6905460C4613B9002582
:1044B000284638BD18B1036A0BB9FFF7A1F9B4F962
:1044C0000C30002BF3D0626ED00704D4990502D4CF
:1044D000A06DFFF78AFB28462146FFF761FF636E58
:1044E0000546DA07E4D4A3899B05E1D4A06DFFF764
:1044F0007DFBDDE770B50C46B1F90E1015460029BD
:104500001E4696B00CDAA389002113F0800F0CBF71
:104510004FF480634023002031602B6016B070BDE3
:104520006A4600F049F80028EDDB019901F470417A
:10453000A1F50053594259414FF48063EBE78B8951
:1045400073B59D0706460C4607D504F14703236063
:1045500023610123636102B070BD6A4601ABFFF7BE
:10456000C9FF009905463046FFF7B8FB48B9B4F9D2
:104570000C309A05EFD423F0030343F00203A38128
:10458000E3E7A389206043F08003A381009B2061BF
:104590006361019B5BB13046B4F90E1000F01EF868
:1045A00028B1A38923F0030343F00103A381A38966
:1045B0001D43A581CFE7000038B50023064D044612
:1045C000084611462B60FDF79CFA431C02D12B686C
:1045D00003B1236038BD00BF9403002038B5002329
:1045E000054D044608462B60FDF790FA431C02D1A6
:1045F0002B6803B1236038BD9403002038B5002335
:10460000054D044608462B60FDF784FA431C02D191
:104610002B6803B1236038BD94030020034610B516
:10462000C9B202449342184601D1002003E0047845
:1046300001338C42F6D110BDF8B500BFF8BC08BC00
:104640009E467047F8B500BFF8BC08BC9E46704750
:104650005375636365737321004661696C656421FA
:104660000044697374616E63653A2025640D0A0025
:104670000000000000000000010203040607080912
:1046800000000000010203040203040506070809F4
:104690000A0B0C0D0E0F10100102232D302B2000E1
:1046A000686C4C00656667454647003031323334EC
:1046B000353637383941424344454600303132338C
:1046C000343536373839616263646566000000004E
:0446D00035010008A8
:0446D40011010008C8
:1046D800520000000024F400010000001000000057
:1046E8000000000003000000580200200000000045
:1046F80058020020C002002028030020000000000B
:1047080000000000000000000000000000000000A1
:104718000000000000000000000000000000000091
:104728000000000000000000000000000000000081
:0C47380000000000000000001C00002039
:0400000508001B795B
:00000001FF
